:1007A000013701023500000238003CC101C103C11C
:0307B00002C10083
:1007C000E53945386017E539153970021538E539CE
:0E07D00045387007C205AF37120873D20022F9
:03087A00D2012286
:03087D00D2022282
:10081600E53945386003D38001C39205AF37120826
:0408260073D2002267
:1007DE00120574300015C200A203E433F526AB39BE
:0E07EE00AA38AD36AC35AF371202CA02067813
:1006EF007BFF7A08797A7DC87C00E4FF1207767B5E
:1006FF00FF7A08797D7D197C027F011207767BFFD7
:10070F007A0779C07DE77C037F021207760208160D
:1004F1001205DCEFF46038EF14602F1460251460EE
:10050100151470280537C3E537940474809480402E
:100511001B7537018016743C2539F539E43538F5FA
:10052100388009E4F538F5398002B2031208163033
:10053100012BC201E5394538601EE53764017004BD
:100541007FFE8016E537640270047FFD800CE5377D
:10055100640370097FFB80027FFF12085C30021286
:10056100C20230030D12062A1201AA8E358F3612ED
:0305710008162247
:100003007FFF12085C12084D12083D1206EF12081A
:080013002AD2AF1204F180FBB8
:0A005900C0F9A4B0999282F88090DB
:0307B300012C0016
:10067800E5A0540F44E0F5A07580FF53A00FE5A056
:10068800540F44C0F5A0AF2CA8077401088002C31A
:1006980033D8FCF58053A00FE5A0540F44E0F5A033
:1006A800742D252CF8E6F58053A00F052CE52C6455
:0606B800087002F52C227F
:1005DC007527FFE5B0540FFF640F603812086AE509
:1005EC00B0540FFF640F602CEF24F9601A24FC60E8
:1005FC001124FE600814701C7527018017752702E2
:10060C008012752703800D7527048008EF640F6036
:0E061C000A12086AE5B0540FFF80F1AF2722E2
:0E085C00E5A0540F4480F5A08F8053A00F221A
:0F084D00E5A0540F44A0F5A0E4F58053A00F22BE
:10074B00C205D2947F0C7E001207FCC2947F507EB0
:10075B00001207FCD2947F0A7E001207FCA294922F
:0B076B00057F057E001207FCA205229E
:1006BE008F2AE4F52BC3E52B940874809480501A8E
:1006CE00C294E52A1392947F057E001207FCD29401
:1006DE00E52AC313F52A052B80DB7F057E00020772
:0106EE00FC0F
:10071F00E4F52AC3E52A940874809480501BC29490
:10072F00E52BC313F52BD294309403432B807F0515
:0C073F007E001207FC052A80DAAF2B2296
:0907B600011F01C104021D000035
:10082A00438E4053890F758B23758DFFC28FD28EED
:03083A00D2AB221C
:070873008F1FA20592042271
:03001B000203C617
:1003C600C0E0C0D075D000C006C0072004030204F8
:1003D60054051EE51E7002051DAF1F7E00EF640169
:1003E600701EC3E51E9409E51D94005004D2B48026
:1003F60065C3E51E942FE51D94005048C2B480568F
:10040600EF64024E7020C3E51E940EE51D94005065
:1004160004D2B48041C3E51E942FE51D9400500418
:10042600C2B48032801EC3E51E9421E51D9400509F
:1004360004D2B48021C3E51E942FE51D9400500418
:10044600C2B48012751D00751E00D2B48008751DD9
:0F04560000751E00C2B4D007D006D0D0D0E0325F
:09086A007F6C7E91DEFEDFFC22B2
:1007FC00EF1FAA0670011E4A600FE4FDEDC3940CB6
:0A080C007480948050EA0D80F322FE
:10083D00438E0475D7CD75D6D4438E1043AF0422A5
:0300630002001E7A
:10001E00C0E0C0F0C083C082C0D075D000C000C0A8
:10002E0001C002C003C004C005C006C0071207DE2F
:10003E00D007D006D005D004D003D002D001D00016
:0B004E00D0D0D082D083D0F0D0E032C0
:1002CA008C228D23E5266003020364752DBFEF900F
:1002DA00005993F52E752FBF7530FF7C037DE8AF6B
:1002EA0003AE0212022B74592FF58274003EF58375
:1002FA00E493F5317C037DE8AF03AE0212022B7E54
:10030A00007F64CFCDCFCECCCE12022B74592FF5FD
:10031A008274003EF583E493F5327C007D64AF037A
:10032A00AE0212022B7E007F0ACFCDCFCECCCE12E8
:10033A00022B74592FF58274003EF583E493F5334A
:10034A00AE02AF037C007D0A12022B74592DF5828E
:10035A0074003CF583E493F53422752DBF90005D5B
:10036A00E493F52E752FBF7530FFC3E522648094A0
:10037A008050107531BFC3E49523F523E49522F527
:10038A002280037531FFAE22AF237C007D0A120260
:10039A008074592FF58274003EF583E493F532AEEA
:1003AA0022AF237C007D0A12028074592DF58274D3
:0C03BA00003CF583E493F5337534C62253
:10057400E4F521C3E5219403748094805059E52166
:1005840075F007A4240AF80806E618700106E521A8
:1005940075F007A42408F8E6FE08E6FFE52175F0E7
:1005A40007A4240AF8E6FC08E6C39FEC9E4024E571
:1005B4002175F007A4240AF8E4F608F6E52175F09D
:1005C40007A4240CF808E6FA08E6F9AE024E600324
:0805D4001202C40521809C22E3
:10077600EF75F007A42408F8A60408A605EF75F09F
:1007860007A4240AF8E4F608F6EF75F007A4240C8B
:0A079600F8A60308A60208A6012237
:10062A0012074B7FCC1206BE7F441206BE7F907E15
:10063A00011207FC12074B7FCC1206BE7FBE1206C0
:10064A00BE12071F8F2712071FEFFEE527FFEE30A6
:10065A00E706F5288F2980048E288F29AC28AD2932
:0E066A00EC120171E4FBFA7980783D02006623
:10006600EC4D6011E8497017ED33EC3304600DE494
:10007600FCFFFEFD22E933E8330470F80202161293
:1000860001E158046009E4CC248150062850090295
:10009600022028400302021DC0E0EB4A7044B980EA
:1000A60006D0E0FB02020CEF4E701CBD8008EBFF91
:1000B600EAFEE9FD80EBE98DF0A4FEE5F002014FD2
:1000C600E9CDF9EAFEEBFFEF89F0A4FCE5F0CE8975
:1000D600F0A42EFFE435F0CD89F0A42DFEE435F032
:1000E6008067EF4E7005BD80D780C3EF8BF0A4AC60
:1000F600F0EE8BF0A42CFCE435F0F8EF8AF0A42C9B
:10010600E5F038FCE433CB8DF0A42CFCE5F03BF8AD
:10011600EE8AF0A42CFCE5F038F8E433CF89F0A49D
:100126002CFCE5F038CF3400CE89F0A42FFFE5F0A3
:100136003EFEE433C98DF0A42EFEE5F039CD8AF0FB
:10014600A42FFFE5F03EFEE43DFD33D0E0FB500773
:100156000BBB000F020220EC2CFCEF33FFEE33FE4C
:06016600ED33FD0201F87B
:10016C0075F020800E75F010800575F0087D007E0E
:10017C00007F003392D530D5031202B6EC33401019
:10018C00EF33FFEE33FEED33FDEC33FCD5F0ED2217
:0E019C00E5F0247EA2D513CC92E7CDCEFF2253
:1001AA00EDD2E7CD33EC3392D524814006E4FFFE4D
:1001BA00FDFC22FCE4CFCECDCC24E0501174FF80AC
:1001CA00EDC3CC13CCCD13CDCE13CECF13CF047049
:0701DA00F030D5DE0202B691
:1001E100E9D2E7C933E833F892D5EDD2E7CD33EC64
:0701F10033FC5002B2D522DD
:1001F800EC30E7100FBF000C0EBE00080DBD000468
:100208000BEB6014A2D5EB13FCED92E7FD2274FF13
:10021800FCFDFEFF22E480F8A2D574FF13FC7D806C
:03022800E480EF80
:0300000002046592
:0C046500787FE4F6D8FD7581390204AC04
:10022B00BC000BBE0029EF8DF084FFADF022E4CCB7
:10023B00F875F008EF2FFFEE33FEEC33FCEE9DEC80
:10024B00984005FCEE9DFE0FD5F0E9E4CEFD22EDC6
:10025B00F8F5F0EE8420D21CFEADF075F008EF2F10
:10026B00FFED33FD4007985006D5F0F222C398FD01
:05027B000FD5F0EA229E
:10028000C2D5EC30E709B2D5E4C39DFDE49CFCEE99
:1002900030E715B2D5E4C39FFFE49EFE12022BC3E4
:1002A000E49DFDE49CFC800312022B30D507C3E4DF
:0602B0009FFFE49EFE2208
:0E02B600C3E49FFFE49EFEE49DFDE49CFC2259
:0602C4008A838982E473C5
:10047100020003E493A3F8E493A34003F68001F29E
:1004810008DFF48029E493A3F85407240CC8C3338C
:10049100C4540F4420C8834004F456800146F6DF5B
:1004A100E4800B01020408102040809007A0E47E44
:1004B100019360BCA3FF543F30E509541FFEE49350
:1004C100A360010ECF54C025E060A840B8E493A317
:1004D100FAE493A3F8E493A3C8C582C8CAC583CA42
:1004E100F0A3C8C582C8CAC583CADFE9DEE780BEFA
:0107BF000039
:00000001FF
